:100000000C9467000C948F000C948F000C948F005C
:100010000C948F000C948F000C948F000C948F0024
:100020000C948F000C948F000C948F000C948F0014
:100030000C948F000C948F000C948F000C948F0004
:100040000C94EB060C9460080C948F000C948F00B9
:100050000C948F000C948F000C948F000C948F00E4
:100060000C9435070C948F0000000000230026003C
:10007000290000000000240027002A0000000000E2
:10008000250028002B0004040404040404040202D4
:100090000202020203030303030302020301020438
:1000A00008102040800102040810200102040810FA
:1000B0002040804000000009000302000004050801
:1000C000000000000000000000000000A60811244D
:1000D0001FBECFEFD8E0DEBFCDBF11E0A0E0B1E0A2
:1000E000ECE9F4E102C005900D92A43BB107D9F709
:1000F00022E0A4EBB1E001C01D92A43FB207E1F7FA
:1001000010E0C7E6D0E004C02197FE010E94370A44
:10011000C636D107C9F70E9413090C944C0A0C94F7
:10012000000080E00895089508959B01DC01189671
:10013000ED91FC9141E067E10994843081F028F46D
:100140008230E9F08330F9F00895883071F0893019
:1001500091F08530B9F4809180008F7D03C080914B
:1001600080008F778093800008958091B0008F7712
:100170008093B00008958091B0008F7DF9CF84B551
:100180008F7784BD089584B58F7DFBCF1F93CF9368
:10019000DF93282F30E0F901EC54FF4F8491F901EF
:1001A000E356FF4FD491F901EA57FF4FC491CC2396
:1001B000A9F0162F81110E949D00EC2FF0E0EE0FA8
:1001C000FF1FE458FF4FA591B4918FB7F894EC91BD
:1001D000111108C0D095DE23DC938FBFDF91CF9142
:1001E0001F910895DE2BF8CF1092AD021092AC0251
:1001F0001092AB021092AA021092A90281E08093A1
:10020000A8021092A70261E082E10E94C60061E0AC
:1002100083E10E94C600E9EBF0E080818E7F80835D
:1002200080818D7F808388E48093B80085E480930B
:10023000BC0083E990E09093A6028093A50284E934
:1002400090E09093A4028093A3020895CF93DF934C
:1002500090E0FC01E356FF4F24918A579F4FFC0129
:1002600084918823D1F090E0880F991FFC01EE580B
:10027000FF4FA591B491FC01E458FF4FC591D49173
:10028000623071F49FB7F8943C91822F809583235C
:100290008C93E8812E2B28839FBFDF91CF91089507
:1002A0008FB7F894EC912E2B2C938FBFF6CF880F3D
:1002B000991F880F991F05970197F1F708953FB788
:1002C000F89480919F029091A002A091A102B09118
:1002D000A20226B5A89B05C02F3F19F00196A11DCB
:1002E000B11D3FBFBA2FA92F982F8827BC01CD0180
:1002F000620F711D811D911D42E0660F771F881FDF
:10030000991F4A95D1F70895DC011A96ED91FC9159
:1003100030E020E00994DC011696ED91FC9130E08C
:1003200020E040E069E10994DC011696ED91FC9132
:1003300030E020E040E068E109949A01DC01169683
:10034000ED91FC91462F67E10994EF92FF920F9394
:100350001F93CF93DF931F92CDB7DEB77C018B0144
:10036000D8016C91673129F150F46531A0F40F90F8
:10037000DF91CF911F910F91FF90EF9008956A3117
:1003800018F16E3FA1F7F8014181498369E2C70185
:100390000E9484010BC0F80141814983D701169660
:1003A000ED91FC9130E020E0C70109950E5F1F4FF1
:1003B000D7CFF80181818983AE014F5F5F4F61E044
:1003C000C7010E949D01F2CF0F5F1F4FD701169604
:1003D000ED91FC9130E020E040E0C7010995C0CFED
:1003E000462FDC011696ED91FC9130E020E066E1AD
:1003F0000994462FDC011696ED91FC9130E020E047
:1004000065E109948F929F92AF92BF92CF92DF9253
:10041000EF92FF920F931F93CF93DF93EC01E42EA3
:1004200069016E30B9F06F3081F16B3049F069309D
:1004300009F08DC088E791E0998388831C8A17C0F2
:1004400066E171E0442311F061E171E0CE010E94A8
:10045000A5010DC00E94940161E8CE010E94F9013E
:100460006E2DCE010E94F001CE010E948B0181E031
:10047000DF91CF911F910F91FF90EF90DF90CF9080
:10048000BF90AF909F908F9008950E949401D601E5
:100490001396FC9013978F2D880F880FFC88F69485
:1004A000F80E14961C91110F110F110F65E7CE0174
:1004B0000E94F901612FCE010E94F00167E0610FF7
:1004C000CE010E94F001F601B280008111819B2CC7
:1004D000AF2C65E1CE010E94F9016A2DCE010E9488
:1004E000F00163E06A0DCE010E94F0018AE792E01C
:1004F0009801285F3F4FFC01D8018C9011967C91A8
:100500000E5F1F4FAC01405E5F4F60EF80FE60E00A
:1005100070FD6F606083349686947695E417F507D6
:10052000A1F701960217130731F74AE752E060E29C
:10053000CE010E949D01B4E0AB0E9A949110C9CFF8
:10054000BB0CBB0CFB0CEA94E110BDCF8DCF6A3025
:10055000B1F5EA85FB8530E020E040E068E20995EE
:10056000EE81FF8130E020E040E064E1CE010995BA
:1005700041E06BE4CE010E948401E881F98144816D
:1005800069E2CE010E94840140E06BE4CE010E944A
:100590008401E881F981448169E2CE010E948401ED
:1005A00041E06BE4CE010E948401E881F98145813C
:1005B00069E2CE010E94840161E371E047CF80E0EF
:1005C0006D3009F055CF41110AC06BE171E0CE01E9
:1005D0000E94A501E881F98182898C8B48CF66E26F
:1005E00071E0CE010E94A501E881F9818389F5CFF0
:1005F000DC011896ED91FC9130E020E040E069E1EB
:100600000994DC011896ED91FC9130E020E040E087
:1006100068E10994CF93DF931F92CDB7DEB769836A
:10062000BE016F5F7F4F0E9495000F90DF91CF91C9
:100630000895EF92FF921F93CF93DF93EC01162F53
:100640007A010E94010360E4CE010E940A03E8855A
:10065000F9859701412F67E1CE010995CE01DF9120
:10066000CF911F91FF90EF900C94F802EF92FF92C0
:100670001F93CF93DF93EC01142F7901673130F48E
:10068000653178F4643159F180E005C06731F9F0E3
:100690006A31D0F781E0DF91CF911F91FF90EF9009
:1006A00008950E94010360E0CE010E940A03612FB9
:1006B000CE010E940A03CE010E94F802EBCF68E14E
:1006C000CE010E941903185188E1E80EF11CA70120
:1006D0001931A8F7612FCE010E941903DBCF8E8953
:1006E0008F3F11F488E78E8BE885F9859701412FBC
:1006F00064E1CE01DF91CF911F91FF90EF900994BB
:10070000CF93DF93EC01A889B989FD01349131962B
:100710009491319684911396FD01A4916317A8F1E9
:10072000961798F1631B770B8A9FE02D1124E69FA3
:10073000C001E79F900D1124280F392F311D83E050
:10074000220F331F8A95E1F7C9010496DA01245F6D
:100750003F4FE889F989E80FF91FE491ED9301967D
:1007600082179307B1F78D89882361F0FA019A0106
:10077000285F3F4F8191DF01119780958C932E1751
:100780003F07C1F7DF91CF910895FA01CA0108969A
:100790001192E817F907E1F7E6CF8F929F92AF9297
:1007A000BF92CF92DF92EF92FF921F93CF93DF938E
:1007B000EC016C32B0F46A32E8F5683241F169322A
:1007C00009F445C080E06034B0F16F73FE01E60FBC
:1007D000F11D868D8F3F71F1603108F069C0642F83
:1007E00013C06D3209F457C068F384EB860F823072
:1007F00048F76F73C60FD11D8E8D411155C061E052
:100800000E94260160E08E8D0E94C60013C07C010C
:100810002EE1E20EF11CD0E0F70181917F018F3FC4
:1008200031F061E0D03108F062E00E942601DF5F24
:10083000D63191F781E0DF91CF911F91FF90EF903A
:10084000DF90CF90BF90AF909F908F900895C42E6F
:10085000D12CF12CE12C0E945F014B015C01C114F1
:10086000D104E104F10431F30E945F0168197909B0
:100870008A099B09683E73408105910580F3F1E088
:10088000CF1AD108E108F10828EE820E23E0921E6B
:10089000A11CB11CE4CF85E090E0433010F082E071
:1008A00090E00E945701C6CF62E00E942601C2CFAD
:1008B000282F30E0F901EC54FF4F8491F901E35601
:1008C000FF4FF490F901EA57FF4F1491112379F08B
:1008D00081110E949D00E12FF0E0EE0FFF1FE8590B
:1008E000FF4FA591B491EC91FE2281E009F480E0E4
:1008F000898FA0CF2F923F924F925F926F927F92FB
:100900008F929F92AF92BF92CF92DF92EF92FF921F
:100910000F931F93CF93DF93CDB7DEB72D970FB60D
:10092000F894DEBF0FBECDBFDC015496ED91FC9173
:100930005597D996DC90D997CF0103966A3019F56F
:10094000FC018491D80ED996DC92D997D8961C9246
:1009500081E090E02D960FB6F894DEBF0FBECDBFBC
:10096000DF91CF911F910F91FF90EF90DF90CF908B
:10097000BF90AF909F908F907F906F905F904F90BF
:100980003F902F90089532962490D8965C90D897F7
:100990005D0124E0A20EB11CF490FC01E490352C22
:1009A0003F0CED0C81E0850D381610F4FF24F39414
:1009B000C62E8D01612CCE0101964C01462C752C62
:1009C000242DA4016C2DC5010E9480037C86DD8648
:1009D00091E09B879A868986D8011896ED91FC91C3
:1009E0009E01275F3F4F41E06FE0C50109954394A9
:1009F0007394731428F3D3946F0CDE14F8F2F80197
:100A000080AD820D80AFA4CF85ED8093BC00809136
:100A1000BC0084FDFCCF1092A902089520912F0202
:100A2000260F3327331F21323105ECF42091A90220
:100A3000FC0190E080E0243069F082E00895A0910C
:100A40002F022191AC01415F5D4FA40FB52FB11D65
:100A50002C930196861798F380912F02680F60936C
:100A60002F0280E0089581E008950895E091AD029D
:100A70008091AC02E81730F4F0E0E151FE4F808144
:100A800090E008958FEF9FEF08959091AD028091CF
:100A9000AC022FEF3FEF981748F4E92FF0E0E15157
:100AA000FE4F208130E09F5F9093AD02C901089511
:100AB0008091AC029091AD02891B990B0895CF9261
:100AC000DF92EF92FF920F931F93CF93DF937C01FE
:100AD000CB018A0120915802222389F0EB016B019E
:100AE000C40ED51ECC15DD0569F06991D701ED91D5
:100AF000FC910190F081E02DC7010995F3CF642F9F
:100B00000E940E05C801DF91CF911F910F91FF90B8
:100B1000EF90DF90CF900895CF93DF93EC01862F75
:100B2000683181F138F4B901843199F0873159F095
:100B300080E006C0693109F447C06032C9F781E03E
:100B4000DF91CF91089550E08EEA92E00E945F0518
:100B5000F6CF8C859D85AE85BF85892B8A2B8B2B07
:100B600071F4E881F981A585B0E020EA36E841E03A
:100B700050E00E942C0A6C877D878E879F870E9499
:100B8000F400DDCF2C853D854E855F8560E074E205
:100B900084EF90E00E940A0A20513109410951096D
:100BA00056954795379527952093B8008E8990E004
:100BB0009595879591E090935802809379021092D1
:100BC000AB021092AA02BBCF9091AA02913208F018
:100BD00040C08091A9028111FCCF8091790222E06E
:100BE0002093A90221E02093A8022FEF209357021F
:100BF00029E532E0309356022093550210925402B8
:100C0000909353021092520290915202880F892BB6
:100C1000809352028091A702813011F51092A702B1
:100C2000809152028093BB008091BC0083FDF8CF7D
:100C300085EC8093BC008091A9028230E1F3809121
:100C400057028F3F31F080915702803211F080912E
:100C500057021092AB021092AA02109258026FCF64
:100C600085EEE7CFCF93DF931F92CDB7DEB76983D1
:100C7000209158022223F9F02091AA02203258F044
:100C800021E030E0FC013383228390E080E00F908C
:100C9000DF91CF9108958091AB02E82FF0E0E75A01
:100CA000FD4F998190838F5F8093AB028093AA025E
:100CB00081E090E0ECCF61E0CE0101960E940E054C
:100CC000F7CFCF92DF92EF92FF920F931F93CF93C4
:100CD000DF936C01EB017B01E40EF51E10E000E0F8
:100CE000CE15DF0561F06991D601ED91FC9101907F
:100CF000F081E02DC6010995080F191FF1CFC80139
:100D0000DF91CF911F910F91FF90EF90DF90CF90E7
:100D10000895089590E080E008955A9A87E097E05A
:100D20000197F1F700C000005A9808955B980E945F
:100D30008D0687EC90E00197F1F700C00000089560
:100D4000599828E030E087FF0CC05B9A880F599AC9
:100D500095ED9A95F1F7000059982150310999F7CE
:100D600008955B98F3CFCF93DF93EC0189918823AB
:100D700061F00E94A0065B9A0E948D0687EC90E0CD
:100D80000197F1F700C00000F1CFDF91CF910895F6
:100D9000CF93DF9300D000D0CDB7DEB7282F1C82D1
:100DA0003AE0632F0E94FE09905D9B830E94FE093A
:100DB000905D9A83822F64E60E94FE09805D89839C
:100DC000CE0101960E94B3060F900F900F900F90E6
:100DD000DF91CF9108951F920F920FB60F921124B9
:100DE0002F933F938F939F93AF93BF9380919B02D9
:100DF00090919C02A0919D02B0919E0230919A0226
:100E000023E0230F2D3768F126E8230F0296A11D5A
:100E1000B11D20939A0280939B0290939C02A09311
:100E20009D02B0939E0280919F029091A002A0919A
:100E3000A102B091A2020196A11DB11D80939F0253
:100E40009093A002A093A102B093A202BF91AF9190
:100E50009F918F913F912F910F900FBE0F901F90F8
:100E600018950196A11DB11DD4CF1F920F920FB6F8
:100E70000F9211242F933F934F935F936F937F9320
:100E80008F939F93AF93BF93EF93FF938091B9009C
:100E9000887F803609F44AC0F0F5883209F4A7C08B
:100EA00018F5803109F49BC0B8F4882309F405C112
:100EB000883009F494C0FF91EF91BF91AF919F9159
:100EC0008F917F916F915F914F913F912F910F90F3
:100ED0000FBE0F901F901895883109F488C080329A
:100EE00051F78093570214C0803409F4A5C040F430
:100EF0008033B9F38833F9F68093570285ECBCC090
:100F0000803509F489C0883509F49EC0883499F683
:100F10000E940405D0CF883909F494C038F5883789
:100F200029F050F4883611F0803729F683E0809359
:100F3000A9021092510257C0883809F483C0803941
:100F400019F0803809F0B7CF80915102803208F053
:100F500079C0E091510281E08E0F8093510280911F
:100F6000BB00F0E0EF5CFD4F80833DC0803B39F07B
:100F7000E0F4803A09F485C0883A09F09CCF84E017
:100F80008093A9021092300210922F02E091A502E4
:100F9000F091A602099580912F0281110FC081E086
:100FA00080932F0210920F0209C0803C09F4A6CF53
:100FB000883C09F4A3CF883B09F07DCFE091300253
:100FC00081E08E0F80933002F0E0E15FFD4F808181
:100FD0008093BB009091300280912F0231C08091AC
:100FE00052028093BB0085EC8093BC0064CF90914B
:100FF0005402809153029817B8F580915502909150
:101000005602E091540221E02E0F20935402E80F83
:10101000F92FF11D8081E5CF2091550230915602C4
:10102000E091540281E08E0F809354028091BB00C6
:10103000E20FF32FF11D80839091540280915302AF
:10104000981788F285E8D0CF20915502309156024A
:10105000E091540281E08E0F809354028091BB0096
:10106000E20FF32FF11D80838091A802811150CFF0
:1010700081E08093A70284EA8093BC001092A902C9
:101080001ACF85EC8093BC001092A9028091510286
:10109000803230F4E0915102F0E0EF5CFD4F1082BD
:1010A0006091510270E0E091A302F091A40281E30B
:1010B00092E0099510925102FECE1092570228CF6D
:1010C0001F920F920FB60F9211242F934F935F939D
:1010D0008F939F93EF93FF938BB191E089278BB907
:1010E0002EB58091EC019091ED01AC014F5F5F4F07
:1010F0005093ED014093EC018C519E4FFC012083F5
:101100008091EE0181608093EE018091DE018EBDC1
:101110008091EC019091ED01089764F08091E401D9
:10112000823021F08BB192E089278BB91092ED01CA
:101130001092EC01FF91EF919F918F915F914F91F0
:101140002F910F900FBE0F901F901895CF93109274
:10115000B1021092B00288EE93E0A0E0B0E080937C
:10116000B2029093B302A093B402B093B50284E9A3
:1011700091E09093AF028093AE021092BD02109264
:10118000BC021092F2021092F30286EA91E0909370
:10119000BB028093BA021092BF021092BE0210925C
:1011A000D3021092D6021092CA021092CB02109271
:1011B000CC021092CD028FEF8093D4028093D8029C
:1011C000ECEDF2E082EF92E0CFEFC1938E179F0734
:1011D000E1F782E092E09093C3028093C20286E33B
:1011E00093E09093C5028093C4028CE895E09093BD
:1011F000C7028093C6028DEC93E09093C90280935E
:10120000C80230E020E040E069E08EEB92E00E940E
:10121000020283E18093E70286E08093E802C093B4
:10122000E902CF910895CF93DF931F92CDB7DEB738
:10123000509A549A5C9A539A529A519A2FEF86E791
:1012400091E0215080409040E1F700C0000080E331
:101250000E94A0060E9496068FE39CE90197F1F791
:1012600000C0000080E30E94A0060E9496069AE655
:101270009A95F1F700C080E30E94A0060E949606AE
:101280008FE792E00197F1F700C0000088E30E9429
:10129000A0060E94960688E00E94A0060E9496067C
:1012A00081E00E94A0060E9496068FE79EE30197C8
:1012B000F1F700C0000086E00E94A0060E9496069A
:1012C0008FE79EE30197F1F700C000008CE00E94D9
:1012D000A0060E9496069FEF23EF81E091502040E8
:1012E0008040E1F700C0000080E80E94A0060E9454
:1012F000960680E091E00E94B3069FEF23ED80E325
:10130000915020408040E1F700C00000249A2C9AC0
:101310002298259880EC8CBD8DB589838EB5898304
:1013200078948EEA91E00E94B30660E087E00E9424
:10133000C60060E08AE00E94C6001092B8000E94D9
:10134000F400269A279A10E1A8958091EE01816019
:101350008093EE018091EE018E7F8093EE01F894F0
:1013600080EC0E94A0060E9496068091EC0190916C
:10137000ED010E94C80680E20E94A0065B9A0E94CE
:101380008D0687EC90E00197F1F700C00000E09136
:10139000EC01F091ED01EC51FE4F80810E94C806F6
:1013A00078948091E2019091E30101969093E3019A
:1013B0008093E2018115904138F21092E30110927E
:1013C000E2018091E0019091E10101969093E101A9
:1013D0008093E001809708F4B7CF8BB181278BB958
:1013E0001092E1011092E0018091DE019091DF0105
:1013F00001969093DF018093DE01A6CF991B79E0DF
:1014000004C0991F961708F0961B881F7A95C9F794
:1014100080950895A1E21A2EAA1BBB1BFD010DC0E9
:10142000AA1FBB1FEE1FFF1FA217B307E407F50794
:1014300020F0A21BB30BE40BF50B661F771F881F70
:10144000991F1A9469F760957095809590959B0106
:10145000AC01BD01CF0108950E943D0AA59F900DEA
:10146000B49F900DA49F800D911D11240895EE0F3F
:10147000FF1F0590F491E02D0994A29FB001B39F46
:10148000C001A39F700D811D1124911DB29F700D8D
:0C149000811D1124911D0895F894FFCFD8
:10149C0053504920536C61766520496E6974200065
:1014AC00001815AE19FF1815AF19FF1815A2160064
:1014BC0015A0165119FF1815A2160015A0164219E1
:1014CC00FF1815AE15151600167F15751600167F2C
:1014DC001581168015A0165115A1160015A216001F
:1014EC0015A416A8167F15B116F115B3160015AB79
:1014FC00160115B6160F15BE160F15BC160815D508
:10150C00166215FD161219FF0001140A6464646456
:10151C0000093D000001283C1010000080008000F4
:10152C000000000032065F058A06350558054505A2
:10153C003605000000007A0461068A068906204FF1
:04154C004C454400C6
:00000001FF
