:100000000C945D000C9485000C9485000C94850084
:100010000C9485000C9485000C9485000C9485004C
:100020000C9485000C9485000C9485000C9485003C
:100030000C9485000C9485000C9485000C9485002C
:100040000C94E8020C945D040C9485000C948500DB
:100050000C9485000C9485000C9485000C9485000C
:100060000C9432030C948500000000002500280049
:100070002B00040404040404040402020202020229
:1000800003030303030302020301020408102040D8
:100090008001020408102001020408102040804062
:1000A0000000000900030200000405080000000031
:1000B0000000000000000000A30411241FBECFEFC9
:1000C000D8E0DEBFCDBF11E0A0E0B1E0E8EBFCE09E
:1000D00002C005900D92AA32B107D9F721E0AAE239
:1000E000B1E001C01D92AC3EB207E1F710E0CDE5F2
:1000F000D0E004C02197FE010E945406CC35D10700
:10010000C9F70E94B4040C945A060C94000090E0C5
:10011000FC01E056FF4F2491FC01E757FF4F34915B
:10012000FC01EE58FF4FE491EE23C9F0222339F091
:10013000243001F1A8F4223069F1233079F1F0E0A4
:10014000EE0FFF1FE859FF4FA591B4918FB7F894B8
:10015000EC91611126C030953E233C938FBF0895EA
:10016000283071F0293091F0253049F780918000D6
:100170008F7D03C0809180008F7780938000DFCFD8
:100180008091B0008F778093B000D9CF8091B0007C
:100190008F7DF9CF84B58F7784BDD1CF84B58F7D26
:1001A000FBCF3E2BDACF3FB7F8948091E8019091D6
:1001B000E901A091EA01B091EB0126B5A89B05C029
:1001C0002F3F19F00196A11DB11D3FBFBA2FA92FD6
:1001D000982F8827BC01CD01620F711D811D911DD3
:1001E00042E0660F771F881F991F4A95D1F708953F
:1001F0008F929F92AF92BF92CF92DF92EF92FF9237
:100200004B015C010E94D3006B017C010E94D30072
:100210006C197D098E099F09683E7340810591051F
:10022000A8F321E0821A9108A108B10888EEC80E4F
:1002300083E0D81EE11CF11C81149104A104B104D7
:1002400029F7FF90EF90DF90CF90BF90AF909F90F5
:100250008F90089585ED8093BC008091BC0084FD53
:10026000FCCF1092DB0108952091B501260F3327B2
:10027000331F21323105ECF42091DB01FC0190E0C9
:1002800080E0243069F082E00895A091B5012191C9
:10029000AC014D565E4FA40FB52FB11D2C930196A6
:1002A000861798F38091B501680F6093B50180E0DF
:1002B000089581E00895089508950895E0918401D6
:1002C00080918301E81730F4F0E0ED59FE4F808112
:1002D00090E008958FEF9FEF0895909184018091B1
:1002E00083012FEF3FEF981748F4E92FF0E0ED5925
:1002F000FE4F208130E09F5F90938401C9010895F3
:100300008091830190918401891B990B0895CF926C
:10031000DF92EF92FF920F931F93CF93DF937C01B5
:10032000CB018A0120916201222389F0EB016B014C
:10033000C40ED51ECC15DD0569F06991D701ED918C
:10034000FC910190F081E02DC7010995F3CF642F56
:100350000E943401C801DF91CF911F910F91FF904E
:10036000EF90DF90CF900895CF93DF931F92CDB79A
:10037000DEB76983209162012223F9F02091850183
:10038000203258F021E030E0FC013383228390E0FA
:1003900080E00F90DF91CF91089580918601E82F42
:1003A000F0E0EE5BFE4F998190838F5F8093860132
:1003B0008093850181E090E0ECCF61E0CE01019671
:1003C0000E943401F7CF90E080E00895CF93C82FCA
:1003D00081E0809362018CE380933001109286016A
:1003E0001092850187E891E00E94B4016C2F87E8A4
:1003F00091E00E94B401809185018132E8F59091ED
:10040000DB019111FCCF92E09093DB0191E090939E
:10041000DD019FEF9093DA0122E431E03093DF01B8
:100420002093DE011092E1018093E0011092E2013D
:100430008091E20188678093E2018091DC01813044
:1004400019F51092DC018091E2018093BB0080914C
:10045000BC0083FDF8CF85EC8093BC008091DB016C
:100460008230E1F38091DA018F3F31F08091DA013F
:10047000803211F08091DA0110928601109285018C
:1004800010926201CF91089585EEE6CF60E00C9462
:10049000E601CF93DF9360E087E00E94870060E091
:1004A0008AE00E948700C8EBD0E018821092840195
:1004B0001092830110928601109285011092DB0147
:1004C00081E08093DD011092DC0161E082E10E9415
:1004D000870061E083E10E948700E9EBF0E0808122
:1004E0008E7F808380818D7F808388E4888385E40C
:1004F0008093BC008BE591E09093B4018093B301AD
:100500008CE591E09093B8018093B70180E0DF9192
:10051000CF9108955A9A87E097E00197F1F700C0CC
:1005200000005A9808955B980E948A0287EC90E038
:100530000197F1F700C000000895599828E030E0D5
:1005400087FF0CC05B9A880F599A95ED9A95F1F741
:10055000000059982150310999F708955B98F3CF1D
:10056000CF93DF93EC018991882361F00E949D0273
:100570005B9A0E948A0287EC90E00197F1F700C035
:100580000000F1CFDF91CF910895CF93DF9300D09A
:1005900000D0CDB7DEB7282F1C823AE0632F0E942F
:1005A0004806905D9B830E944806905D9A83822F47
:1005B00064E60E944806805D8983CE0101960E9410
:1005C000B0020F900F900F900F90DF91CF91089590
:1005D0001F920F920FB60F9211242F933F938F9378
:1005E0009F93AF93BF938091E4019091E501A09117
:1005F000E601B091E7013091E30123E0230F2D37AD
:1006000068F126E8230F0296A11DB11D2093E30196
:100610008093E4019093E501A093E601B093E70194
:100620008091E8019091E901A091EA01B091EB017C
:100630000196A11DB11D8093E8019093E901A0935B
:10064000EA01B093EB01BF91AF919F918F913F91E0
:100650002F910F900FBE0F901F9018950196A11D1E
:10066000B11DD4CF1F920F920FB60F9211242F936A
:100670003F934F935F936F937F938F939F93AF932A
:10068000BF93EF93FF938091B900887F803609F480
:100690004AC0F0F5883209F4A7C018F5803109F492
:1006A0009BC0B8F4882309F405C1883009F494C0CC
:1006B000FF91EF91BF91AF919F918F917F916F913A
:1006C0005F914F913F912F910F900FBE0F901F9010
:1006D0001895883109F488C0803251F78093DA0187
:1006E00014C0803409F4A5C040F48033B9F38833D2
:1006F000F9F68093DA0185ECBCC0803509F489C035
:10070000883509F49EC0883499F60E942A01D0CF1A
:10071000883909F494C038F5883729F050F48836C0
:1007200011F0803729F683E08093DB011092D90124
:1007300057C0883809F483C0803919F0803809F02F
:10074000B7CF8091D901803208F079C0E091D9010A
:1007500081E08E0F8093D9018091BB00F0E0E754D7
:10076000FE4F80833DC0803B39F0E0F4803A09F4CD
:1007700085C0883A09F09CCF84E08093DB01109219
:10078000B6011092B501E091B301F091B401099561
:100790008091B50181110FC081E08093B501109265
:1007A000930109C0803C09F4A6CF883C09F4A3CF8B
:1007B000883B09F07DCFE091B60181E08E0F8093F8
:1007C000B601F0E0ED56FE4F80818093BB00909122
:1007D000B6018091B50131C08091E2018093BB00E8
:1007E00085EC8093BC0064CF9091E1018091E001A1
:1007F0009817B8F58091DE019091DF01E091E10159
:1008000021E02E0F2093E101E80FF92FF11D8081E7
:10081000E5CF2091DE013091DF01E091E10181E03F
:100820008E0F8093E1018091BB00E20FF32FF11D49
:1008300080839091E1018091E001981788F285E82A
:10084000D0CF2091DE013091DF01E091E10181E024
:100850008E0F8093E1018091BB00E20FF32FF11D19
:1008600080838091DD01811150CF81E08093DC0194
:1008700084EA8093BC001092DB011ACF85EC809350
:10088000BC001092DB018091D901803230F4E091FC
:10089000D901F0E0E754FE4F10826091D90170E079
:1008A000E091B701F091B80189EB91E009951092C0
:1008B000D901FECE1092DA0128CF1F920F920FB607
:1008C0000F9211242F934F935F938F939F93EF93E6
:1008D000FF938BB191E089278BB92EB580913F01B1
:1008E00090914001AC014F5F5F4F509340014093A6
:1008F0003F01895C9E4FFC01208380914101816012
:1009000080934101809131018EBD80913F01909192
:100910004001089764F080913701823021F08BB15B
:1009200092E089278BB91092400110923F01FF910C
:10093000EF919F918F915F914F912F910F900FBEEB
:100940000F901F901895E7E8F1E01382128288EE6D
:1009500093E0A0E0B0E084839583A683B78385E12C
:1009600091E0918380830895CF93DF931F92CDB759
:10097000DEB7509A549A5C9A539A529A519A2FEF32
:1009800086E791E0215080409040E1F700C00000F0
:1009900080E30E949D020E9493028FE39CE90197ED
:1009A000F1F700C0000080E30E949D020E949302C4
:1009B0009AE69A95F1F700C080E30E949D020E949A
:1009C00093028FE792E00197F1F700C0000088E3FF
:1009D0000E949D020E94930288E00E949D020E9454
:1009E000930281E00E949D020E9493028FE79EE3A2
:1009F0000197F1F700C0000086E00E949D020E946E
:100A000093028FE79EE30197F1F700C000008CE0AE
:100A10000E949D020E9493029FEF23EF81E091507C
:100A200020408040E1F700C0000080E80E949D0265
:100A30000E94930280E091E00E94B0029FEF23EDBC
:100A400080E3915020408040E1F700C00000249AEC
:100A50002C9A2298259880EC8CBD8DB589838EB513
:100A6000898378940E94490283E291E00E94B00257
:100A700061E088E00E94870064E670E080E090E03A
:100A80000E94F80060E088E00E94870064E670E061
:100A900080E090E00E94F80061E088E00E9487001A
:100AA00064E670E080E090E00E94F8008EEA0E9428
:100AB000460285E10E94460280E00E9446028FE7DE
:100AC0000E94460285E70E94460280E00E9446029C
:100AD0008FE70E94460281E80E94460280E80E9459
:100AE000460280EA0E94460281E50E94460281EAAF
:100AF0000E94460280E00E94460282EA0E9446026C
:100B000080E00E94460284EA0E94460288EA0E942F
:100B100046028FE70E94460281EB0E94460281EF67
:100B20000E94460283EB0E94460280E00E94460239
:100B30008BEA0E94460281E00E94460286EB0E94F8
:100B400046028FE00E9446028EEB0E9446028FE032
:100B50000E9446028CEB0E94460288E00E944602F8
:100B600085ED0E94460282E60E9446028DEF0E94B9
:100B7000460282E10E94460268EC70E080E090E06C
:100B80000E94F8008FEA0E9446029FEF29E688E162
:100B9000915020408040E1F700C0000085E10E94B4
:100BA000460280E00E9446028FE30E94460285E7EB
:100BB0000E94460280E00E9446028FE70E944602A1
:100BC00000E010E260E480E00E94E60101501109BB
:100BD000C9F70E944902269A279A10E1A8958091A8
:100BE0004101816080934101809141018E7F80931A
:100BF0004101F89480EC0E949D020E949302809132
:100C00003F01909140010E94C50280E20E949D0236
:100C10005B9A0E948A0287EC90E00197F1F700C08E
:100C20000000E0913F01F0914001E95CFE4F8081BE
:100C30000E94C50278948091350190913601019609
:100C400090933601809335018115904138F21092CE
:100C50003601109235018091330190913401019653
:100C60009093340180933301809708F4B7CF8BB110
:100C700081278BB910923401109233018091310198
:100C80009091320101969093320180933101A6CF69
:100C9000991B79E004C0991F961708F0961B881FCE
:100CA0007A95C9F780950895EE0FFF1F0590F4918E
:080CB000E02D0994F894FFCF38
:100CB80053504920536C61766520496E6974200051
:100CC8000000000000B4018701E3015D0180016DAF
:0A0CD800015E01204F4C454400006E
:00000001FF
