:100000000C9467000C948F000C948F000C948F005C
:100010000C948F000C948F000C948F000C948F0024
:100020000C948F000C948F000C948F000C948F0014
:100030000C948F000C948F000C948F000C948F0004
:100040000C94EB060C9460080C948F000C948F00B9
:100050000C948F000C948F000C948F000C948F00E4
:100060000C9435070C948F0000000000230026003C
:10007000290000000000240027002A0000000000E2
:10008000250028002B0004040404040404040202D4
:100090000202020203030303030302020301020438
:1000A00008102040800102040810200102040810FA
:1000B0002040804000000009000302000004050801
:1000C000000000000000000000000000A60811244D
:1000D0001FBECFEFD8E0DEBFCDBF11E0A0E0B1E0A2
:1000E000E8EEF4E102C005900D92A43BB107D9F708
:1000F00022E0A4EBB1E001C01D92A43FB207E1F7FA
:1001000010E0C7E6D0E004C02197FE010E945D0A1E
:10011000C636D107C9F70E9413090C94720A0C94D1
:10012000000080E008959B01DC011896ED91FC91A0
:1001300041E067E10994843081F028F48230E9F0ED
:100140008330F9F00895883071F0893091F085306E
:10015000B9F4809180008F7D03C0809180008F77FB
:100160008093800008958091B0008F778093B000D5
:1001700008958091B0008F7DF9CF84B58F7784BDCD
:10018000089584B58F7DFBCF1F93CF93DF93282FE6
:1001900030E0F901EC54FF4F8491F901E356FF4F31
:1001A000D491F901EA57FF4FC491CC23A9F0162F3F
:1001B00081110E949B00EC2FF0E0EE0FFF1FE4582E
:1001C000FF4FA591B4918FB7F894EC91111108C02D
:1001D000D095DE23DC938FBFDF91CF911F910895DF
:1001E000DE2BF8CFCF93DF9390E0FC01E356FF4F77
:1001F00024918A579F4FFC0184918823D1F090E08D
:10020000880F991FFC01EE58FF4FA591B491FC0196
:10021000E458FF4FC591D491623071F49FB7F894C0
:100220003C91822F809583238C93E8812E2B288309
:100230009FBFDF91CF9108958FB7F894EC912E2B4B
:100240002C938FBFF6CF880F991F880F991F0597A2
:100250000197F1F708953FB7F8948091AA02909121
:10026000AB02A091AC02B091AD0226B5A89B05C02F
:100270002F3F19F00196A11DB11D3FBFBA2FA92F25
:10028000982F8827BC01CD01620F711D811D911D22
:1002900042E0660F771F881F991F4A95D1F708958E
:1002A000DC011A96ED91FC9130E020E00994DC012C
:1002B0001696ED91FC9130E020E040E069E1099470
:1002C000DC011696ED91FC9130E020E040E068E121
:1002D00009949A01DC011696ED91FC91462F67E195
:1002E0000994EF92FF920F931F93CF93DF931F9286
:1002F000CDB7DEB77C018B01D8016C91673129F154
:1003000050F46531A0F40F90DF91CF911F910F91C0
:10031000FF90EF9008956A3118F16E3FA1F7F80150
:100320004181498369E2C7010E9450010BC0F80175
:1003300041814983D7011696ED91FC9130E020E090
:10034000C70109950E5F1F4FD7CFF80181818983BF
:10035000AE014F5F5F4F61E0C7010E946901F2CFBC
:100360000F5F1F4FD7011696ED91FC9130E020E012
:1003700040E0C7010995C0CF462FDC011696ED91EC
:10038000FC9130E020E066E10994462FDC011696EE
:10039000ED91FC9130E020E065E109948F929F920D
:1003A000AF92BF92CF92DF92EF92FF920F931F9383
:1003B000CF93DF93EC01E42E69016E30B9F06F301A
:1003C00081F16B3049F0693009F08DC088E791E028
:1003D000998388831C8A17C066E171E0442311F079
:1003E00061E171E0CE010E9471010DC00E946001C7
:1003F00061E8CE010E94C5016E2DCE010E94BC01B4
:10040000CE010E94570181E0DF91CF911F910F91A2
:10041000FF90EF90DF90CF90BF90AF909F908F9024
:1004200008950E946001D6011396FC9013978F2DBA
:10043000880F880FFC88F694F80E14961C91110F03
:10044000110F110F65E7CE010E94C501612FCE018A
:100450000E94BC0167E0610FCE010E94BC01F60161
:10046000B280008111819B2CAF2C65E1CE010E94EE
:10047000C5016A2DCE010E94BC0163E06A0DCE0168
:100480000E94BC0185E892E09801285F3F4FFC0183
:10049000D8018C9011967C910E5F1F4FAC01405E8D
:1004A0005F4F60EF80FE60E070FD6F6060833496A8
:1004B00086947695E417F507A1F7019602171307BE
:1004C00031F745E852E060E2CE010E946901B4E0F4
:1004D000AB0E9A949110C9CFBB0CBB0CFB0CEA94E9
:1004E000E110BDCF8DCF6A30B1F5EA85FB8530E0F4
:1004F00020E040E068E20995EE81FF8130E020E0F5
:1005000040E064E1CE01099541E06BE4CE010E9438
:100510005001E881F981448169E2CE010E945001D5
:1005200040E06BE4CE010E945001E881F9814481F2
:1005300069E2CE010E94500141E06BE4CE010E94CD
:100540005001E881F981458169E2CE010E945001A4
:1005500061E371E047CF80E06D3009F055CF411184
:100560000AC06BE171E0CE010E947101E881F9815E
:1005700082898C8B48CF66E271E0CE010E947101C6
:10058000E881F9818389F5CFDC011896ED91FC9122
:1005900030E020E040E069E10994DC011896ED913B
:1005A000FC9130E020E040E068E10994CF93DF93D4
:1005B0001F92CDB7DEB76983BE016F5F7F4F0E9488
:1005C00093000F90DF91CF910895EF92FF921F93C8
:1005D000CF93DF93EC01162F7A010E94CD0260E4E5
:1005E000CE010E94D602E885F9859701412F67E187
:1005F000CE010995CE01DF91CF911F91FF90EF9031
:100600000C94C402EF92FF921F93CF93DF93EC01FF
:10061000142F7901673130F4653178F4643159F180
:1006200080E005C06731F9F06A31D0F781E0DF91F1
:10063000CF911F91FF90EF9008950E94CD0260E04E
:10064000CE010E94D602612FCE010E94D602CE01B9
:100650000E94C402EBCF68E1CE010E94E50218516E
:1006600088E1E80EF11CA7011931A8F7612FCE012E
:100670000E94E502DBCF8E898F3F11F488E78E8BD5
:10068000E885F9859701412F64E1CE01DF91CF9193
:100690001F91FF90EF900994CF93DF93EC01A8890D
:1006A000B989FD01349131969491319684911396D4
:1006B000FD01A4916317A8F1961798F1631B770BBE
:1006C0008A9FE02D1124E69FC001E79F900D112421
:1006D000280F392F311D83E0220F331F8A95E1F750
:1006E000C9010496DA01245F3F4FE889F989E80FD0
:1006F000F91FE491ED93019682179307B1F78D8965
:10070000882361F0FA019A01285F3F4F8191DF0150
:10071000119780958C932E173F07C1F7DF91CF91EA
:100720000895FA01CA0108961192E817F907E1F74E
:10073000E6CF089508958F929F92AF92BF92CF9285
:10074000DF92EF92FF921F93CF93DF93EC016C3215
:10075000B0F46A32E8F5683241F1693209F445C013
:1007600080E06034B0F16F73FE01E60FF11D868DFD
:100770008F3F71F1603108F069C0642F13C06D3292
:1007800009F457C068F384EB860F823048F76F7323
:10079000C60FD11D8E8D411155C061E00E94F2003F
:1007A00060E08E8D0E94C40013C07C012EE1E20E39
:1007B000F11CD0E0F70181917F018F3F31F061E0C2
:1007C000D03108F062E00E94F200DF5FD63191F78D
:1007D00081E0DF91CF911F91FF90EF90DF90CF905C
:1007E000BF90AF909F908F900895C42ED12CF12C84
:1007F000E12C0E942B014B015C01C114D104E104E6
:10080000F10431F30E942B01681979098A099B09C7
:10081000683E73408105910580F3F1E0CF1AD1085D
:10082000E108F10828EE820E23E0921EA11CB11C03
:10083000E4CF85E090E0433010F082E090E00E9449
:100840002301C6CF62E00E94F200C2CF282F30E021
:10085000F901EC54FF4F8491F901E356FF4FF490F6
:10086000F901EA57FF4F1491112379F081110E9489
:100870009B00E12FF0E0EE0FFF1FE859FF4FA5911D
:10088000B491EC91FE2281E009F480E0898FA0CF41
:100890002F923F924F925F926F927F928F929F9290
:1008A000AF92BF92CF92DF92EF92FF920F931F937E
:1008B000CF93DF93CDB7DEB72D970FB6F894DEBF99
:1008C0000FBECDBFDC015496ED91FC915597D996A2
:1008D000DC90D997CF0103966A3019F5FC01849119
:1008E000D80ED996DC92D997D8961C9281E090E0E8
:1008F0002D960FB6F894DEBF0FBECDBFDF91CF911E
:100900001F910F91FF90EF90DF90CF90BF90AF902D
:100910009F908F907F906F905F904F903F902F901F
:10092000089532962490D8965C90D8975D0124E083
:10093000A20EB11CF490FC01E490352C3F0CED0CA0
:1009400081E0850D381610F4FF24F394C62E8D0136
:10095000612CCE0101964C01462C752C242DA4014E
:100960006C2DC5010E944C037C86DD8691E09B873F
:100970009A868986D8011896ED91FC919E01275F91
:100980003F4F41E06FE0C5010995439473947314A0
:1009900028F3D3946F0CDE14F8F2F80180AD820DC9
:1009A00080AFA4CF85ED8093BC008091BC0084FD16
:1009B000FCCF10926002089520912F02260F33275A
:1009C000331F21323105ECF420916002FC0190E0EC
:1009D00080E0243069F082E00895A0912F022191F7
:1009E000AC01415F5D4FA40FB52FB11D2C93019653
:1009F000861798F380912F02680F60932F0280E092
:100A0000089581E008950895E0915702809156027B
:100A1000E81730F4F0E0E151FE4F808190E0089556
:100A20008FEF9FEF089590915702809156022FEF1C
:100A30003FEF981748F4E92FF0E0E151FE4F208195
:100A400030E09F5F90935702C9010895809156024C
:100A500090915702891B990B0895CF92DF92EF92E4
:100A6000FF920F931F93CF93DF937C01CB018A01F9
:100A700020916102222389F0EB016B01C40ED51E87
:100A8000CC15DD0569F06991D701ED91FC910190DC
:100A9000F081E02DC7010995F3CF642F0E94DC049B
:100AA000C801DF91CF911F910F91FF90EF90DF90E0
:100AB000CF900895CF93DF93EC01862F683109F42E
:100AC00061C038F4B901843199F0873159F080E080
:100AD00006C0693109F478C06032C9F781E0DF915E
:100AE000CF91089550E08EEA92E00E942D05F6CF56
:100AF0008C859D85AE85BF85892B8A2B8B2B71F4C8
:100B0000E881F981A585B0E020EA36E841E050E0CF
:100B10000E94520A6C877D878E879F8710925702AA
:100B20001092560210926202109284021092600299
:100B300081E080935F021092580261E082E10E949E
:100B4000C40061E083E10E94C4008091B9008E7FFF
:100B50008093B9008091B9008D7F8093B90088E4BB
:100B60008093B80085E48093BC0089E993E090937A
:100B70005502809354028AE993E090935302809344
:100B80005202ACCF2C853D854E855F8560E074E2D6
:100B900084EF90E00E94300A205131094109510947
:100BA00056954795379527952093B8008E8990E004
:100BB0009595879591E090936102809383021092BE
:100BC0006202109284028ACF90918402913208F0DE
:100BD00040C0809160028111FCCF8091830222E0AD
:100BE0002093600221E020935F022FEF20935E02AA
:100BF00023E632E030935D0220935C0210925B02A8
:100C000090935A021092590290915902880F892BA1
:100C10008093590280915802813011F51092580248
:100C2000809159028093BB008091BC0083FDF8CF76
:100C300085EC8093BC00809160028230E1F380916A
:100C40005E028F3F31F080915E02803211F0809120
:100C50005E021092620210928402109261023ECFF4
:100C600085EEE7CFCF93DF931F92CDB7DEB76983D1
:100C7000209161022223F9F020918402203258F061
:100C800021E030E0FC013383228390E080E00F908C
:100C9000DF91CF91089580916202E82FF0E0ED5945
:100CA000FD4F998190838F5F8093620280938402CD
:100CB00081E090E0ECCF61E0CE0101960E94DC047F
:100CC000F7CFCF92DF92EF92FF920F931F93CF93C4
:100CD000DF936C01EB017B01E40EF51E10E000E0F8
:100CE000CE15DF0561F06991D601ED91FC9101907F
:100CF000F081E02DC6010995080F191FF1CFC80139
:100D0000DF91CF911F910F91FF90EF90DF90CF90E7
:100D10000895089590E080E008955A9A87E097E05A
:100D20000197F1F700C000005A9808955B980E945F
:100D30008D0687EC90E00197F1F700C00000089560
:100D4000599828E030E087FF0CC05B9A880F599AC9
:100D500095ED9A95F1F7000059982150310999F7CE
:100D600008955B98F3CFCF93DF93EC0189918823AB
:100D700061F00E94A0065B9A0E948D0687EC90E0CD
:100D80000197F1F700C00000F1CFDF91CF910895F6
:100D9000CF93DF9300D000D0CDB7DEB7282F1C82D1
:100DA0003AE0632F0E94100A905D9B830E94100A14
:100DB000905D9A83822F64E60E94100A805D898389
:100DC000CE0101960E94B3060F900F900F900F90E6
:100DD000DF91CF9108951F920F920FB60F921124B9
:100DE0002F933F938F939F93AF93BF938091A602CE
:100DF0009091A702A091A802B091A9023091A502FA
:100E000023E0230F2D3768F126E8230F0296A11D5A
:100E1000B11D2093A5028093A6029093A702A093F0
:100E2000A802B093A9028091AA029091AB02A0916E
:100E3000AC02B091AD020196A11DB11D8093AA0232
:100E40009093AB02A093AC02B093AD02BF91AF916F
:100E50009F918F913F912F910F900FBE0F901F90F8
:100E600018950196A11DB11DD4CF1F920F920FB6F8
:100E70000F9211242F933F934F935F936F937F9320
:100E80008F939F93AF93BF93EF93FF938091B9009C
:100E9000887F803609F44AC0F0F5883209F4A7C08B
:100EA00018F5803109F49BC0B8F4882309F405C112
:100EB000883009F494C0FF91EF91BF91AF919F9159
:100EC0008F917F916F915F914F913F912F910F90F3
:100ED0000FBE0F901F901895883109F488C080329A
:100EE00051F780935E0214C0803409F4A5C040F429
:100EF0008033B9F38833F9F680935E0285ECBCC089
:100F0000803509F489C0883509F49EC0883499F683
:100F10000E94D204D0CF883909F494C038F58837BC
:100F200029F050F4883611F0803729F683E0809359
:100F300060021092510257C0883809F483C080398A
:100F400019F0803809F0B7CF80915102803208F053
:100F500079C0E091510281E08E0F8093510280911F
:100F6000BB00F0E0EF5CFD4F80833DC0803B39F07B
:100F7000E0F4803A09F485C0883A09F09CCF84E017
:100F8000809360021092300210922F02E09154027E
:100F9000F0915502099580912F0281110FC081E0D7
:100FA00080932F0210920F0209C0803C09F4A6CF53
:100FB000883C09F4A3CF883B09F07DCFE091300253
:100FC00081E08E0F80933002F0E0E15FFD4F808181
:100FD0008093BB009091300280912F0231C08091AC
:100FE00059028093BB0085EC8093BC0064CF909144
:100FF0005B0280915A029817B8F580915C0290913B
:101000005D02E0915B0221E02E0F20935B02E80F6E
:10101000F92FF11D8081E5CF20915C0230915D02B6
:10102000E0915B0281E08E0F80935B028091BB00B8
:10103000E20FF32FF11D808390915B0280915A02A1
:10104000981788F285E8D0CF20915C0230915D023C
:10105000E0915B0281E08E0F80935B028091BB0088
:10106000E20FF32FF11D808380915F02811150CF39
:1010700081E08093580284EA8093BC001092600261
:101080001ACF85EC8093BC001092600280915102CF
:10109000803230F4E0915102F0E0EF5CFD4F1082BD
:1010A0006091510270E0E0915202F091530281E3AD
:1010B00092E0099510925102FECE10925E0228CF66
:1010C0001F920F920FB60F9211242F934F935F939D
:1010D0008F939F93EF93FF938BB191E089278BB907
:1010E0002EB58091EC019091ED01AC014F5F5F4F07
:1010F0005093ED014093EC018C519E4FFC012083F5
:101100008091EE0181608093EE018091DE018EBDC1
:101110008091EC019091ED01089764F08091E401D9
:10112000823021F08BB192E089278BB91092ED01CA
:101130001092EC01FF91EF919F918F915F914F91F0
:101140002F910F900FBE0F901F901895CF93109274
:10115000B1021092B00288EE93E0A0E0B0E080937C
:10116000B2029093B302A093B402B093B50284E9A3
:1011700091E09093AF028093AE021092BD02109264
:10118000BC021092F2021092F30286EA91E0909370
:10119000BB028093BA021092BF021092BE0210925C
:1011A000D3021092D6021092CA021092CB02109271
:1011B000CC021092CD028FEF8093D4028093D8029C
:1011C000ECEDF2E082EF92E0CFEFC1938E179F0734
:1011D000E1F78EEC91E09093C3028093C20282E02B
:1011E00093E09093C5028093C4028AE595E09093C2
:1011F000C7028093C6028BE993E09093C902809363
:10120000C80230E020E040E069E08EEB92E00E940E
:10121000CE0182E18093E70283E18093E802C093EC
:10122000E902CF910895CF93DF93CDB7DEB728972A
:101230000FB6F894DEBF0FBECDBF509A549A5C9A99
:10124000539A529A519A2FEF86E791E021508040AD
:101250009040E1F700C0000080E30E94A0060E94D9
:1012600096068FE39CE90197F1F700C0000080E348
:101270000E94A0060E9496069AE69A95F1F700C091
:1012800080E30E94A0060E9496068FE792E00197F5
:10129000F1F700C0000088E30E94A0060E949606B5
:1012A00088E00E94A0060E94960681E00E94A006A7
:1012B0000E9496068FE79EE30197F1F700C00000B9
:1012C00086E00E94A0060E9496068FE79EE30197A3
:1012D000F1F700C000008CE00E94A0060E94960674
:1012E0009FEF23EF81E0915020408040E1F700C064
:1012F000000080E80E94A0060E94960680E091E02F
:101300000E94B3069FEF23ED80E391502040804080
:10131000E1F700C000008EEA91E00E94B306269A31
:10132000279A80E4D82E90E1C92E8E010F5F1F4FBF
:101330002AE0E22EF12CA8958091EE018160809345
:10134000EE018091EE018E7F8093EE01F89480ECA7
:101350000E94A0060E9496068091EC019091ED01FA
:101360000E94C80680E20E94A0065B9A0E948D0639
:1013700087EC90E00197F1F700C00000E091EC01EC
:10138000F091ED01EC51FE4F80810E94C8067894E7
:101390008091E2019091E30101969093E3018093A3
:1013A000E2018115904138F21092E3011092E201BE
:1013B0008091E0019091E10101969093E101809389
:1013C000E001809708F4B7CF85B18D2585B98BB141
:1013D0008C258BB91092E1011092E0018091DE0121
:1013E0009091DF0101969093DF018093DE018AECFA
:1013F0000E94A0060E9496068091DE019091DF0176
:101400001886FE013896B7010E941C0A805D8293FF
:10141000CB01E017F107B9F7C8010E94B3068BCFE3
:10142000991B79E004C0991F961708F0961B881F36
:101430007A95C9F780950895AA1BBB1B51E107C097
:10144000AA1FBB1FA617B70710F0A61BB70B881F54
:10145000991F5A95A9F780959095BC01CD010895E3
:10146000A1E21A2EAA1BBB1BFD010DC0AA1FBB1FA8
:10147000EE1FFF1FA217B307E407F50720F0A21B1A
:10148000B30BE40BF50B661F771F881F991F1A9487
:1014900069F760957095809590959B01AC01BD01B1
:1014A000CF0108950E94630AA59F900DB49F900DEF
:1014B000A49F800D911D11240895EE0FFF1F05902C
:1014C000F491E02D0994A29FB001B39FC001A39FA6
:1014D000700D811D1124911DB29F700D811D11246D
:0814E000911D0895F894FFCF5F
:1014E80053504920536C61766520496E6974200019
:1014F800001815AE19FF1815AF19FF1815A2160018
:1015080015A0165119FF1815A2160015A016421994
:10151800FF1815AE15151600167F15751600167FDF
:101528001581168015A0165115A1160015A21600D2
:1015380015A416A8167F15B116F115B3160015AB2C
:10154800160115B6160F15BE160F15BC160815D5BB
:10155800166215FD161219FF0001140A646464640A
:1015680000093D000001283C1010000080008000A8
:101578000000000032062D058A060305260513051E
:10158800040500000000480461068A068906204F09
:041598004C4544007A
:00000001FF
