:100000000C945D000C9485000C9485000C94850084
:100010000C9485000C9485000C9485000C9485004C
:100020000C9485000C9485000C9485000C9485003C
:100030000C9485000C9485000C9485000C9485002C
:100040000C94EE010C9451030C9485000C948500E3
:100050000C9485000C9485000C9485000C9485000C
:100060000C9438020C948500000000002500280044
:100070002B00040404040404040402020202020229
:1000800003030303030302020301020408102040D8
:100090008001020408102001020408102040804062
:1000A0000000000900030200000405080000000031
:1000B0000000000000000000970311241FBECFEFD6
:1000C000D8E0DEBFCDBF11E0A0E0B1E0EEE3F9E0A3
:1000D00002C005900D92AA32B107D9F721E0AAE239
:1000E000B1E001C01D92A83CB207E1F710E0CDE5F8
:1000F000D0E004C02197FE010E949704CC35D107BF
:10010000C9F70E94A8030C949D040C94000090E091
:10011000FC01E056FF4F2491FC01E757FF4F34915B
:10012000FC01EE58FF4FE491EE23C9F0222339F091
:10013000243001F1A8F4223069F1233079F1F0E0A4
:10014000EE0FFF1FE859FF4FA591B4918FB7F894B8
:10015000EC91611126C030953E233C938FBF0895EA
:10016000283071F0293091F0253049F780918000D6
:100170008F7D03C0809180008F7780938000DFCFD8
:100180008091B0008F778093B000D9CF8091B0007C
:100190008F7DF9CF84B58F7784BDD1CF84B58F7D26
:1001A000FBCF3E2BDACF85ED8093BC008091BC0065
:1001B00084FDFCCF1092B901089520919301260F80
:1001C0003327331F21323105ECF42091B901FC01B2
:1001D00090E080E0243069F082E00895A0919301DE
:1001E0002191AC014F585E4FA40FB52FB11D2C9338
:1001F0000196861798F380919301680F609393019D
:1002000080E0089581E00895089508950895E091AB
:10021000620180916101E81730F4F0E0EF5BFE4F7E
:10022000808190E008958FEF9FEF08959091620193
:10023000809161012FEF3FEF981748F4E92FF0E02C
:10024000EF5BFE4F208130E09F5F90936201C90118
:1002500008958091610190916201891B990B089525
:10026000CF93DF93CB01EA01642F0E94DD00CE0122
:10027000DF91CF910895CF93DF931F92CDB7DEB773
:10028000698361E0CE0101960E94DD0081E090E08B
:100290000F90DF91CF91089590E080E00895CF9383
:1002A000DF9360E087E00E94870060E08AE00E94C0
:1002B0008700C8EBD0E018821092620110926101B1
:1002C00010926401109263011092B90181E0809351
:1002D000BB011092BA0161E082E10E94870061E0F7
:1002E00083E10E948700E9EBF0E080818E7F8083CC
:1002F00080818D7F808388E4888385E48093BC003F
:1003000084E091E0909392018093910185E091E0E7
:10031000909396018093950180E0DF91CF910895AD
:100320005A9A87E097E00197F1F700C000005A98C9
:1003300008955B980E94900187EC90E00197F1F797
:1003400000C000000895599828E030E087FF0CC0F5
:100350005B9A880F599A95ED9A95F1F70000599894
:100360002150310999F708955B98F3CFCF93DF932C
:10037000EC018991882361F00E94A3015B9A0E949D
:10038000900187EC90E00197F1F700C00000F1CFF9
:10039000DF91CF910895CF93DF9300D000D0CDB7F8
:1003A000DEB7282F1C823AE0632F0E948B04905DF9
:1003B0009B830E948B04905D9A83822F64E60E9447
:1003C0008B04805D8983CE0101960E94B6010F9057
:1003D0000F900F900F90DF91CF9108951F920F9281
:1003E0000FB60F9211242F933F938F939F93AF9348
:1003F000BF938091C4019091C501A091C601B091B5
:10040000C7013091C30123E0230F2D3768F126E89F
:10041000230F0296A11DB11D2093C3018093C40137
:100420009093C501A093C601B093C7018091BF010D
:100430009091C001A091C101B091C2010196A11D8E
:10044000B11D8093BF019093C001A093C101B093EF
:10045000C201BF91AF919F918F913F912F910F90CA
:100460000FBE0F901F9018950196A11DB11DD4CFFE
:100470001F920F920FB60F9211242F933F934F9319
:100480005F936F937F938F939F93AF93BF93EF93FC
:10049000FF938091B900887F803609F44AC0F0F557
:1004A000883209F4A7C018F5803109F49BC0B8F46C
:1004B000882309F4F3C0883009F494C0FF91EF91C8
:1004C000BF91AF919F918F917F916F915F914F916C
:1004D0003F912F910F900FBE0F901F90189588316C
:1004E00009F488C0803251F78093B80114C0803479
:1004F00009F499C040F48033B9F38833F9F6809356
:10050000B80185ECAAC0803509F483C0883509F4A8
:1005100092C0883499F60E94D300D0CF883909F46C
:1005200088C038F5883729F050F4883611F08037C4
:1005300029F683E08093B9011092B70157C088383B
:1005400009F477C0803919F0803809F0B7CF80916D
:10055000B701803208F06DC0E091B70181E08E0FE5
:100560008093B7018091BB00F0E0E956FE4F808395
:100570003DC0803B39F0E0F4803A09F473C0883A1A
:1005800009F09CCF84E08093B901109294011092FD
:100590009301E0919101F09192010995809193016D
:1005A00081110FC081E0809393011092710109C005
:1005B000803C09F4A6CF883C09F4A3CF883B09F01E
:1005C0007DCFE091940181E08E0F80939401F0E063
:1005D000EF58FE4F80818093BB00909194018091F1
:1005E000930125C08091BE018093BB0085EC809370
:1005F000BC0064CF9091BD018091BC01981728F593
:10060000E091BD0181E08E0F8093BD01F0E080811B
:10061000EBCFE091BD0181E08E0F8093BD01809111
:10062000BB00F0E080839091BD018091BC019817E0
:10063000E8F285E8DCCFE091BD0181E08E0F809388
:10064000BD018091BB00F0E080838091BB018111EE
:1006500062CF81E08093BA0184EA8093BC0010925B
:10066000B9012CCF85EC8093BC001092B901809128
:10067000B701803230F4E091B701F0E0E956FE4F67
:1006800010826091B70170E0E0919501F0919601C0
:1006900087E991E009951092B70110CF1092B80147
:1006A0003ACF1F920F920FB60F9211242F934F93B0
:1006B0005F938F939F93EF93FF938BB191E0892783
:1006C0008BB92EB580913E0190913F01AC014F5FF7
:1006D0005F4F50933F0140933E018A5C9E4FFC0167
:1006E000208380914001816080934001809130019E
:1006F0008EBD80913E0190913F01089764F08091FA
:100700003601823021F08BB192E089278BB91092AB
:100710003F0110923E01FF91EF919F918F915F9168
:100720004F912F910F900FBE0F901F901895E5E6F7
:10073000F1E01382128288EE93E0A0E0B0E08483BF
:100740009583A683B78385E191E0918380830895A3
:10075000CF93DF931F92CDB7DEB7509A549A5C9A2D
:10076000539A529A519A2FEF86E791E02150804098
:100770009040E1F700C0000080E30E94A3010E94C6
:1007800099018FE39CE90197F1F700C0000080E335
:100790000E94A3010E9499019AE69A95F1F700C080
:1007A00080E30E94A3010E9499018FE792E00197E4
:1007B000F1F700C0000088E30E94A3010E949901A4
:1007C00088E00E94A3010E94990181E00E94A30198
:1007D0000E9499018FE79EE30197F1F700C00000A6
:1007E00086E00E94A3010E9499018FE79EE3019792
:1007F000F1F700C000008CE00E94A3010E94990163
:100800009FEF23EF81E0915020408040E1F700C04E
:10081000000080E80E94A3010E94990180E091E01D
:100820000E94B6019FEF23ED80E39150204080406D
:10083000E1F700C00000249A2C9A2298259880ECB9
:100840008CBD8DB589838EB5898378940E944F01C4
:1008500083E291E00E94B6010E944F01269A279AF6
:1008600010E1A895809140018160809340018091C2
:1008700040018E7F80934001F89480EC0E94A30198
:100880000E94990180913E0190913F010E94CB010D
:1008900080E20E94A3015B9A0E94900187EC90E0A5
:1008A0000197F1F700C00000E0913E01F0913F0197
:1008B000EA5CFE4F80810E94CB01789480913401E4
:1008C0009091350101969093350180933401811503
:1008D000904138F21092350110923401809132012A
:1008E0009091330101969093330180933201809768
:1008F00008F4B7CF8BB181278BB9109233011092D6
:100900003201809130019091310101969093310133
:1009100080933001A6CF991B79E004C0991F9617E8
:1009200008F0961B881F7A95C9F780950895EE0FF9
:0E093000FF1F0590F491E02D0994F894FFCF7D
:10093E0053504920536C61766520496E69742000CE
:10094E0000000000003B0130014C01060129011698
:0A095E00010701204F4C4544000042
:00000001FF
